:060000000A128A11FC2F18
:100D94000030831203138C1A0130080083120313EA
:100DA4008C1ED52ED62ED02E1A080800FF308312A2
:100DB4000313A400FF30A500FF30A600FF30A700F6
:100DC4002008A8002108A9002208AA002308AB00D3
:100DD40004300310A80DA90DAA0DAB0DFF3E031D91
:100DE400EB2E2B08F3002A08F2002908F10028084A
:100DF400F0000030F7003D30F6000930F500003017
:100E0400F4000A128A1134270A128A117008831214
:100E14000313A40771080318710F112F122FA507CC
:100E240072080318720F172F182FA60773080318D8
:100E3400730AA7072708AF002608AE002508AD00EF
:100E44002408AC002C08831603139900871707178E
:100E54001815181283120313981718168316031300
:100E6400981608000030FC000030FB000030FA0047
:100E74000030F90073087204710470040319432FDD
:100E8400442F8F2F0130FD00522F0130F800031042
:100E9400F00DF10DF20DF30DF80B492F0130FD07A4
:100EA400F31F552F562F472F0130F8000310F90D6B
:100EB400FA0DFB0DFC0DF80B582F73087702031D78
:100EC4006D2F72087602031D6D2F71087502031DC4
:100ED4006D2F70087402031C702F712F802F7008FF
:100EE400F4027108031C710FF5027208031C720FDF
:100EF400F6027308031C730FF70279140130031010
:100F0400F30CF20CF10CF00CFF3E031D812F0130A9
:100F1400FD02031D8E2F8F2F562F7C08F3007B08B4
:100F2400F2007A08F1007908F00008000130831219
:100F34000313B0000030B100831603138801FF309F
:100F44008312031388000030A3000030A200253070
:100F5400A1008030A0000A128A11D8260A128A1130
:100F6400F12F0A128A11CA260A128A11003A0319A9
:100F7400BC2FBD2FF12F0A128A11D0260A128A1112
:100F840083120313B20061303206031DCA2FCB2F24
:100F9400CE2FFE308800F12F62303206031DD32F8E
:100FA400D42FD72FBF308800F12F63303206031DB2
:100FB400DC2FDD2FE02FF0308800F12F6430320673
:100FC400031DE52FE62FE82F8801F12F7330320639
:100FD400031DED2FEE2FF12FFF308800F12F831228
:100FE400031330083104031DF82FF92FB32F0A120D
:0C0FF4008A11002883010A128A11982F2C
:02400E003A3F37
:00000001FF
