:100000000A128A11F32F00308A000408840A82073A
:0800100000342534643400348F
:10086400080064008001840A0406031900340406A5
:10087400342C0730831603139F008312031385144B
:1008840083160313890188010800831203130910D6
:10089400891009110A128A119B240A128A118312DF
:1008A400031309150800013083120313880009108B
:1008B400891009110A128A119B240A128A118312BF
:1008C400031309150800F200720883120313880049
:1008D4000914891009110A128A119B240A128A1117
:1008E4008312031309150800F71B792C7A2C7B2C2F
:1008F400862C7609F8007709F900F80A0319F90A31
:100904007808F6007908F70008007008F2008C2CCB
:100914000130F0077008840083130008031D932C32
:10092400942C8A2C72087002F000F101F01BF10380
:100934000800F001F1010130F0070318F10A00305A
:10094400F1077108803AFF0093307F02031DAC2C3D
:1009540088307002031CAF2CB02C9D2C0800013091
:1009640083160313860081130A128A1111250A12B1
:100974008A110A128A117A250A128A110A128A1114
:1009840044250A128A11C02C0A128A1100285C30EC
:1009940083120313DF005A08E0000030E100E20193
:1009A400E301E901EA016030D6000030D7005B08BA
:1009B400D8005F30D9000A128A11EC240A128A1175
:1009C4008312031362085A07DE005E08840083134F
:1009D40080010800831203135808FD00002D8312C0
:1009E40003135608C9005708CA007D30CB005908C4
:1009F400CC000A128A110D270A128A117D0884007C
:100A04000A128A1103200A128A11003A031D0B2DBF
:100A14000C2DF12C83120313D601D70108000A12FE
:100A24008A113B240A128A110130831203138800AD
:100A34000A128A1147240A128A11383083120313C6
:100A440088000A128A1147240A128A110E3083126E
:100A5400031388000A128A1147240A128A110630E5
:100A64008312031388000A128A1147240A128A1176
:100A740080308312031388000A128A1147240A1251
:100A84008A110800831203130618492D4A2D792D63
:100A9400043083120313EF00CF30EE000130ED0079
:100AA400ED0B522DEE0B522DEF0B522D831203132F
:100AB4004508803AFF0080307F02031D632D6330B8
:100AC40044020318662D672D702D01308312031321
:100AD400C4070318C50A0030C507742D8312031315
:100AE400C401C5010A128A117A250A128A11080062
:100AF4000A128A1155240A128A11473083120313E9
:100B0400DA000130DB004508DD004408DC000A128D
:100B14008A11C9240A128A1183120313EB01EC010E
:100B2400A52D6B08473E8400831300080A128A111E
:100B340065240A128A11013083120313EB07031888
:100B4400EC0A0030EC074730F0000A128A118724BF
:100B54000A128A117108831203136C02031DB42D47
:100B640070086B02031CB72DB82D932D0800F501F6
:100B7400F31FBD2DBE2DC52DF209F309F20A031989
:100B8400F30A0130F500F11FC82DC92DCE2DF0094F
:100B9400F109F00A0319F10A700871040319D32D3D
:100BA400D42D012E0130F400E02D01300310F00D9E
:100BB400F10DFF3E031DD82D0130F407F11FE32D85
:100BC400E42DD72D71087302031DEA2D70087202FB
:100BD400031CED2DEE2DF42D7008F2027108031C98
:100BE400F303F30201300310F10CF00CFF3E031D7C
:100BF400F52D0130F402031D002E012EE42D75089D
:100C04000319052E062E0B2EF209F309F20A031915
:100C1400F30A7308F1007208F0000800F501F11FEF
:100C2400142E152E1C2EF009F109F00A0319F10AED
:100C34000130F500F31F1F2E202E272EF209F30991
:100C4400F20A0319F30A0130F506F601F7017008F8
:100C5400710403192E2E2F2E642E0130F4003B2E26
:100C640001300310F00DF10DFF3E031D332E013052
:100C7400F407F11F3E2E3F2E322E01300310F60DE5
:100C8400F70DFF3E031D402E71087302031D4C2E09
:100C940070087202031C4F2E502E572E7008F20259
:100CA4007108031CF303F302761401300310F10CF2
:100CB400F00CFF3E031D582E0130F402031D632E79
:100CC400642E3F2E75080319682E692E6E2EF609C0
:100CD400F709F60A0319F70A7708F1007608F00015
:100CE4000800720873040319782E792E7F2E720877
:100CF4007304031D7E2E7F2E862E70080A128A111D
:100D040032240A128A110C2F7208093EF400730867
:100D14000318013E003EF500740884008317751C17
:100D240083130008F600840A0008F70076087704A5
:100D340003199D2E9E2ED02E7208093EF4007308CE
:100D44000318013E003EF500740884008317751CE7
:100D540083130008F600840A0008F7007208023EB4
:100D6400F80073080318013E003EF9007808840077
:100D74008317791C83130008FA00840A0008FB0017
:100D84007B08803AFC007708803A7C02031DCC2E55
:100D940076087A020318CF2ED02E0C2F7208840006
:100DA4008317731C83130008F400840A0008F500F9
:100DB4007208023EF60073080318013E003EF70075
:100DC400760884008317771C831300087407F900DE
:100DD4007508F8000318F80A801FF12EF803780844
:100DE400FA007908840083177A1C83137008800042
:100DF4007208023EF40073080318013E003EF50039
:100E0400740884008317751C831301308007840AD7
:100E14000318800A0800831203134B088400000897
:100E240084000A128A1103200A128A11253A031D2A
:100E34001C2F1D2FD92F4B08840001308007C001BF
:100E4400C1010030C600FF30C200FF30C3004B08B0
:100E540084000008D000500884000A128A1103207C
:100E64000A128A11643A0319382F392F452F500872
:100E740084000A128A1103200A128A11693A031D96
:100E8400442F452FD22F4C08840083130008FF0001
:100E9400023080077F0884000008D100840A00081B
:100EA400D2004B0884005008013E80002030D50059
:100EB400D21B5D2F5F2F0130602F0030CF00013037
:100EC400D5025508203E84000A30F0000030F100BD
:100ED4005208F3005108F2000A128A11B9250A12C5
:100EE4008A117108F7007008F6000A128A11762434
:100EF4000A128A117608303E831380000A30F0000B
:100F04000030F100831203135208F3005108F20079
:100F14000A128A1110260A128A1171088312031305
:100F2400D2007008D1005108520403199A2F9B2F44
:100F3400A02F5508031D9F2FA02F612F55080319BB
:100F4400A42FA52FCB2F4F080319A92FAA2FCB2FDE
:100F54000130D5025508203E84002D3083138000D3
:100F6400CB2F5508203E840083130008CD00CE010A
:100F74004D08F0004E08F1004908F2004A08F30059
:100F84000A128A1173260A128A110130831203137A
:100F9400D50720305506031DD02FD12FB32FF22FA4
:100FA400831203134B08840001308007F22F4B088F
:100FB4008400000884000A128A1103200A128A118C
:100FC400CD00CE014D08F0004E08F1004908F200B2
:100FD4004A08F3000A128A1173260A128A11D22FC0
:100FE400080083132030840049300A128A11332404
:0C0FF4000A128A1183010A128A11B12C22
:02400E003A3F37
:00000001FF
