:060000000A128A11F02F24
:100F4600013400349530831203139F00C03083169A
:100F560003139F000800C730F200B12FF20BB02F29
:100F6600B42FB52F831203131F151F19BB2FBC2FC8
:100F7600B82F1E08F100831603131E08F0000800A0
:100F86000A128A11A5270A128A11831603138801E9
:100F9600FF308312031388000A128A11AE270A1241
:100FA6008A117108F4007008F3007408803AFF0093
:100FB60082307F02031DE12FA53073020318E42F50
:100FC600E52FE92F831203130810CF2F8312031383
:100FD6000814CF2F0A128A1100280A128A11A32791
:100FE6000A128A11F5000A128A11A4270A128A1116
:0A0FF600F60083010A128A11C32FCE
:02400E003A3F37
:00000001FF
