:060000000A128A11FC2F18
:100EFA00831603138801FF30F300FF3083120313B4
:100F0A0086007E3088000630F2001330F100AD30E2
:100F1A00F000F00B8E2FF10B8E2FF20B8E2F952FE8
:100F2A007308831203138800BD3088000630F2006C
:100F3A001330F100AD30F000F00BA12FF10BA12F0F
:100F4A00F20BA12FA82F7308831203138800DB303A
:100F5A0088000630F2001330F100AD30F000F00BDB
:100F6A00B42FF10BB42FF20BB42FBB2F73088312DB
:100F7A0003138800E73088000630F2001330F100CE
:100F8A00AD30F000F00BC72FF10BC72FF20BC72FB4
:100F9A00CE2F7308831203138800DB3088000630D3
:100FAA00F2001330F100AD30F000F00BDA2FF10B44
:100FBA00DA2FF20BDA2FE12F73088312031388005A
:100FCA00BD3088000630F2001330F100AD30F00079
:100FDA00F00BED2FF10BED2FF20BED2FF42F730821
:100FEA00831203138800862F0A128A1100288301AC
:060FFA000A128A117D2F8E
:02400E003A3F37
:00000001FF
