:060000000A128A11FC2F18
:100DB0000030831203138C1A0130080083120313CE
:100DC0008C1EE32EE42EDE2E1A0808008316031371
:100DD0008801FF308312031388000030A300003025
:100DE000A2002530A1008030A0000A128A113C2701
:100DF0000A128A110A128A11D8260A128A11003A96
:100E00000319032F042FFA2E0A128A11DE260A1262
:100E10008A1183120313B00061303006031D112FB5
:100E2000122F152FFE308800FA2E62303006031D77
:100E30001A2F1B2F1E2FBF308800FA2E633030066A
:100E4000031D232F242F272FF0308800FA2E643023
:100E50003006031D2C2F2D2F2F2F8801FA2E7330D3
:100E60003006031D342F352F382FFF308800FA2E1F
:100E7000FA2E0A128A110028FF3083120313A400ED
:100E8000FF30A500FF30A600FF30A7002008A80013
:100E90002108A9002208AA002308AB00043003108F
:100EA000A80DA90DAA0DAB0DFF3E031D4F2F2B085A
:100EB000F3002A08F2002908F1002808F0000030A9
:100EC000F7003D30F6000930F5000030F4000A125A
:100ED0008A1198270A128A11700883120313A40733
:100EE00071080318710F752F762FA5077208031864
:100EF000720F7B2F7C2FA60773080318730AA707AE
:100F00002708AF002608AE002508AD002408AC0075
:100F10002C08831603139900871707171815181242
:100F200083120313981718168316031398160800D4
:100F30000030FC000030FB000030FA000030F90007
:100F400073087204710470040319A72FA82FF32FDC
:100F50000130FD00B62F0130F8000310F00DF10D47
:100F6000F20DF30DF80BAD2F0130FD07F31FB92F74
:100F7000BA2FAB2F0130F8000310F90DFA0DFB0D5D
:100F8000FC0DF80BBC2F73087702031DD12F7208DC
:100F90007602031DD12F71087502031DD12F700831
:100FA0007402031CD42FD52FE42F7008F4027108AB
:100FB000031C710FF5027208031C720FF60273080E
:100FC000031C730FF702791401300310F30CF20CB9
:100FD000F10CF00CFF3E031DE52F0130FD02031D57
:100FE000F22FF32FBA2F7C08F3007B08F2007A0867
:100FF000F1007908F000080083010A128A11E62E38
:02400E003A3F37
:00000001FF
